:020000040000fa
:080000000002040000000000f2
:020000040000fa
:04000800ea02000008
:020000040000fa
:04000c00c802000026
:020000040000fa
:04001000da02000010
:020000040000fa
:04001400d002000016
:020000040000fa
:04001800e202000000
:020000040000fa
:04001c00ea020000f4
:020000040000fa
:04002000ea020000f0
:020000040000fa
:04002400ea020000ec
:020000040000fa
:04002800ea020000e8
:020000040000fa
:04002c00ea020000e4
:020000040000fa
:04003000ea020000e0
:020000040000fa
:04003400ea020000dc
:020000040000fa
:04003800ea020000d8
:020000040000fa
:04003c00ea020000d4
:020000040000fa
:04004000ea020000d0
:020000040000fa
:04004400ea020000cc
:020000040000fa
:04004800ea020000c8
:020000040000fa
:04004c00ea020000c4
:020000040000fa
:04005000ea020000c0
:020000040000fa
:04005400ea020000bc
:020000040000fa
:04005800ea020000b8
:020000040000fa
:04005c00ea020000b4
:020000040000fa
:04006000ea020000b0
:020000040000fa
:04006400ea020000ac
:020000040000fa
:04006800ea020000a8
:020000040000fa
:04006c00ea020000a4
:020000040000fa
:04007000ea020000a0
:020000040000fa
:04007400ea0200009c
:020000040000fa
:04007800ea02000098
:020000040000fa
:04007c00ea02000094
:020000040000fa
:04008000ea02000090
:020000040000fa
:04008400ea0200008c
:020000040000fa
:04008800ea02000088
:020000040000fa
:04008c00ea02000084
:020000040000fa
:04009000ea02000080
:020000040000fa
:04009400ea0200007c
:020000040000fa
:04009800ea02000078
:020000040000fa
:04009c00ea02000074
:020000040000fa
:0400a000ea02000070
:020000040000fa
:0400a400ea0200006c
:020000040000fa
:0400a800ea02000068
:020000040000fa
:0400ac00ea02000064
:020000040000fa
:0400b000ea02000060
:020000040000fa
:0400b400ea0200005c
:020000040000fa
:0400b800ea02000058
:020000040000fa
:0400bc00ea02000054
:020000040000fa
:0400c000ea02000050
:020000040000fa
:0400c400ea0200004c
:020000040000fa
:0400c800ea02000048
:020000040000fa
:0400cc00ea02000044
:020000040000fa
:0400d000ea02000040
:020000040000fa
:0400d400ea0200003c
:020000040000fa
:0400d800ea02000038
:020000040000fa
:0400dc00ea02000034
:020000040000fa
:0400e000ea02000030
:020000040000fa
:0400e400ea0200002c
:020000040000fa
:0400e800ea02000028
:020000040000fa
:0400ec00ea02000024
:020000040000fa
:0400f000ea02000020
:020000040000fa
:0400f400ea0200001c
:020000040000fa
:0400f800ea02000018
:020000040000fa
:0400fc00ea02000014
:020000040000fa
:04010000ea0200000f
:020000040000fa
:04010400ea0200000b
:020000040000fa
:04010800ea02000007
:020000040000fa
:04010c00ea02000003
:020000040000fa
:04011000ea020000ff
:020000040000fa
:04011400ea020000fb
:020000040000fa
:04011800ea020000f7
:020000040000fa
:04011c00ea020000f3
:020000040000fa
:04012000ea020000ef
:020000040000fa
:04012400ea020000eb
:020000040000fa
:04012800ea020000e7
:020000040000fa
:04012c00ea020000e3
:020000040000fa
:04013000ea020000df
:020000040000fa
:04013400ea020000db
:020000040000fa
:04020800ea02000006
:020000040000fa
:04020c00ea02000002
:020000040000fa
:04021000ea020000fe
:020000040000fa
:04021400ea020000fa
:020000040000fa
:04021800ea020000f6
:020000040000fa
:04021c00ea020000f2
:020000040000fa
:04022000ea020000ee
:020000040000fa
:04022400ea020000ea
:020000040000fa
:04022800ea020000e6
:020000040000fa
:04022c00ea020000e2
:020000040000fa
:04023000ea020000de
:020000040000fa
:04023400ea020000da
:020000040000fa
:04023800ea020000d6
:020000040000fa
:04023c00ea020000d2
:020000040000fa
:04024000ea020000ce
:020000040000fa
:04024400ea020000ca
:020000040000fa
:04024800ea020000c6
:020000040000fa
:04024c00ea020000c2
:020000040000fa
:04025000ea020000be
:020000040000fa
:04025400ea020000ba
:020000040000fa
:04025800ea020000b6
:020000040000fa
:04025c00ea020000b2
:020000040000fa
:04026000ea020000ae
:020000040000fa
:04026400ea020000aa
:020000040000fa
:04026800ea020000a6
:020000040000fa
:04026c00ea020000a2
:020000040000fa
:04027000ea0200009e
:020000040000fa
:04027400ea0200009a
:020000040000fa
:04027800ea02000096
:020000040000fa
:04027c00ea02000092
:020000040000fa
:04028000ea0200008e
:020000040000fa
:04028400ea0200008a
:020000040000fa
:04028800ea02000086
:020000040000fa
:04028c00ea02000082
:020000040000fa
:04029000ea0200007e
:020000040000fa
:04029400ea0200007a
:020000040000fa
:04029800ea02000076
:020000040000fa
:04029c00ea02000072
:020000040000fa
:0402a000ea0200006e
:020000040000fa
:0402a400ea0200006a
:020000040000fa
:0402a800ea02000066
:020000040000fa
:0402ac00ea02000062
:020000040000fa
:0402b000ea0200005e
:020000040000fa
:0402b400ea0200005a
:020000040000fa
:0402b800ea02000056
:020000040000fa
:0402bc00ea02000052
:020000040000fa
:0402c000ea0200004e
:020000040000fa
:0402c400ea0200004a
:020000040000fa
:0402c800ea02000046
:020000040000fa
:0402cc00ea02000042
:020000040000fa
:0402d000ea0200003e
:020000040000fa
:0402d400ea0200003a
:020000040000fa
:0402d800ea02000036
:020000040000fa
:0402dc00ea02000032
:020000040000fa
:0402e000ea0200002e
:020000040000fa
:0402e400ea0200002a
:020000040000fa
:0402e800ea02000026
:020000040000fa
:0402ec00ea02000022
:020000040000fa
:0402f000ea0200001e
:020000040000fa
:0402f400ea0200001a
:020000040000fa
:0402f800ea02000016
:020000040000fa
:0402fc00ea02000012
:020000040000fa
:04030000ea0200000d
:020000040000fa
:04030400ea02000009
:020000040000fa
:04030800ea02000005
:020000040000fa
:04030c00ea02000001
:020000040000fa
:04031000ea020000fd
:020000040000fa
:04031400ea020000f9
:020000040000fa
:04031800ea020000f5
:020000040000fa
:04031c00ea020000f1
:020000040000fa
:04032000ea020000ed
:020000040000fa
:04032400ea020000e9
:020000040000fa
:04032800ea020000e5
:020000040000fa
:04032c00ea020000e1
:020000040000fa
:04033000ea020000dd
:020000040000fa
:04033400ea020000d9
:020000040000fa
:100400006f8220000e7f22000e0188000000000095
:10041000000020000000e000020032000001200087
:1004200020028800140007006c0007000000e000b4
:1004300003003a0060422000010020000200370063
:100440000000200001002000810f70000100320038
:1004500014000700000020000000e000020032004d
:10046000000002000000000008040200000000007c
:100470000040da000000fe004440a9000000200017
:100480000000e0000300320000002000a00188000e
:100490004440a800000006008a1f78008b1f7800e7
:1004a0000000060091018800800478000000eb0045
:1004b0001a003700e284440032a0b4009905ba0063
:1004c000e284440032a0b4009906ba00e2844400f9
:1004d00032a0b4000006eb00476fde00fd07b2005b
:1004e000636ce10003003a00ebff07000000eb0043
:1004f0000a003700606ce10004003a00005deb0088
:100500008b05e900fdff3e00040037006168e10053
:10051000010032000086eb000b00070019c7ba008b
:100520001905ba000e04e00003003a000a00e000da
:10053000e0ff3a0000000600fe07b2009e018800be
:100540008a047800f5ff3700395dba008b05e900b1
:100550000c003200295dba008b05e900080032006a
:100560000c00e00003003a00e284440032a0b40032
:10057000f5ff370019ddba008b05e900faff3a00f4
:100580008904e800e184440032a0b40000000600c1
:100590003600f8008020a9000000eb00b900070039
:1005a0003600f800bb0007008040a90010002000c2
:1005b000b40007003600f8008060a9002000200089
:1005c000b00007003600f8008080a900300020004d
:1005d000ac0007000040da000000fe00000005004b
:020000040000fa
:1005e0000000fa00400e280000198800004020009a
:1005f0001019880000f02000201988002823ef003f
:100600000002200080198800101980004200de00de
:100610006f40600002e8b7000080fa0000000600aa
:100620000000fa002023a8000080fa000000060065
:100630000000fa002023a9000080fa000000060054
:100640000600fa00200798000030200010079800ec
:100650000000eb00000f78000b0037001e00780050
:1006600000004000ae009000008040009e0090001e
:1006700091007800010878001e0090000080e800da
:10068000100798001e0fe80002c8bf000080fb00a2
:100690009e0f5000f1ff3d001e0078000080fa0020
:1006a000000006000000fa00001880000080fa0038
:1006b000000006000000fa000019800000407800e9
:1006c000614060000080fb0000f0a7000000ea002d
:1006d0000000ea004f00de00004078000080fa00d1
:1006e000000006000200fa00000f78009e0078006b
:1006f000411988000080fa00000006000000fa009e
:100700000080fa00000006000000fa0021048000ca
:1007100000002200008060000000e00002003200c3
:10072000f6ff070085a0a9000080fa00000006007f
:100730000000fa00c422ef00ca22ef00d022ef002e
:10074000d622ef00dc22ef00e222ef00e822ef00e9
:1007500000602c00001688000080eb003016880036
:10076000e0012700601688000080eb0090168800ea
:10077000f03f2000c0168800f01f2300f01688000c
:10078000f03c2f00201788006820ef006a20ef005f
:10079000c026ef00c626ef00cc26ef00d226ef00e1
:1007a000d826ef00de26ef00e426ef000080fa00f6
:1007b000000006000000fa0000102300203a880024
:1007c0004827ef007027ef007227ef007427ef0033
:1007d0000001eb0080072000a109200033742000f5
:1007e0008049780081497800824978000001eb0057
:1007f00060042000710520002374200080497800e7
:1008000081497800824978000080fa0000000600e3
:100810000000fa002600070000000000a5ff070006
:100820000000e000fdff32009eff0700204088002e
:10083000204080004200de002040880020408000f0
:0c0840002016880000000000f4ff3700c4
:020000040000fa
:10084c000608000020000000000000000008000066
:10085c000200000002000000ffff00000208000080
:10086c00020000000000000004080000020000006c
:08087c00000000000000000074
:020000040000fa
:10088400000f78009e00780001408800ffff3700c9
:100894000000fa006080200080077800e0812000da
:1008a400000188000080fa00000006000000fa0041
:1008b4009eff070008000700bdff070047ff070071
:1008c4000080fa00000006000000fa00b8ff0700ec
:1008d4000080fa00000006000000fa000080fa0020
:0408e400000006000a
:020000040000fa
:020000040002f8
:04aff800bff800009e
:020000040000fa
:020000040002f8
:04affc007f3f000093
:00000001FF
