:020000040000fa
:080000000002040000000000f2
:020000040000fa
:04000800ea02000008
:020000040000fa
:04000c00c802000026
:020000040000fa
:04001000da02000010
:020000040000fa
:04001400d002000016
:020000040000fa
:04001800e202000000
:020000040000fa
:04001c00ea020000f4
:020000040000fa
:04002000ea020000f0
:020000040000fa
:04002400ea020000ec
:020000040000fa
:04002800ea020000e8
:020000040000fa
:04002c00ea020000e4
:020000040000fa
:04003000ea020000e0
:020000040000fa
:04003400ea020000dc
:020000040000fa
:04003800ea020000d8
:020000040000fa
:04003c00ea020000d4
:020000040000fa
:04004000ea020000d0
:020000040000fa
:04004400ea020000cc
:020000040000fa
:04004800ea020000c8
:020000040000fa
:04004c00ea020000c4
:020000040000fa
:04005000ea020000c0
:020000040000fa
:04005400ea020000bc
:020000040000fa
:04005800ea020000b8
:020000040000fa
:04005c00ea020000b4
:020000040000fa
:04006000ea020000b0
:020000040000fa
:04006400ea020000ac
:020000040000fa
:04006800ea020000a8
:020000040000fa
:04006c00ea020000a4
:020000040000fa
:04007000ea020000a0
:020000040000fa
:04007400ea0200009c
:020000040000fa
:04007800ea02000098
:020000040000fa
:04007c00ea02000094
:020000040000fa
:04008000ea02000090
:020000040000fa
:04008400ea0200008c
:020000040000fa
:04008800ea02000088
:020000040000fa
:04008c00ea02000084
:020000040000fa
:04009000ea02000080
:020000040000fa
:04009400ea0200007c
:020000040000fa
:04009800ea02000078
:020000040000fa
:04009c00ea02000074
:020000040000fa
:0400a000ea02000070
:020000040000fa
:0400a400ea0200006c
:020000040000fa
:0400a800ea02000068
:020000040000fa
:0400ac00ea02000064
:020000040000fa
:0400b000ea02000060
:020000040000fa
:0400b400ea0200005c
:020000040000fa
:0400b800ea02000058
:020000040000fa
:0400bc00ea02000054
:020000040000fa
:0400c000ea02000050
:020000040000fa
:0400c400ea0200004c
:020000040000fa
:0400c800ea02000048
:020000040000fa
:0400cc00ea02000044
:020000040000fa
:0400d000ea02000040
:020000040000fa
:0400d400ea0200003c
:020000040000fa
:0400d800ea02000038
:020000040000fa
:0400dc00ea02000034
:020000040000fa
:0400e000ea02000030
:020000040000fa
:0400e400ea0200002c
:020000040000fa
:0400e800ea02000028
:020000040000fa
:0400ec00ea02000024
:020000040000fa
:0400f000ea02000020
:020000040000fa
:0400f400ea0200001c
:020000040000fa
:0400f800ea02000018
:020000040000fa
:0400fc00ea02000014
:020000040000fa
:04010000ea0200000f
:020000040000fa
:04010400ea0200000b
:020000040000fa
:04010800ea02000007
:020000040000fa
:04010c00ea02000003
:020000040000fa
:04011000ea020000ff
:020000040000fa
:04011400ea020000fb
:020000040000fa
:04011800ea020000f7
:020000040000fa
:04011c00ea020000f3
:020000040000fa
:04012000ea020000ef
:020000040000fa
:04012400ea020000eb
:020000040000fa
:04012800ea020000e7
:020000040000fa
:04012c00ea020000e3
:020000040000fa
:04013000ea020000df
:020000040000fa
:04013400ea020000db
:020000040000fa
:04013800ea020000d7
:020000040000fa
:04013c00ea020000d3
:020000040000fa
:04014000ea020000cf
:020000040000fa
:04014400ea020000cb
:020000040000fa
:04014800ea020000c7
:020000040000fa
:04014c00ea020000c3
:020000040000fa
:04015000ea020000bf
:020000040000fa
:04015400ea020000bb
:020000040000fa
:04015800ea020000b7
:020000040000fa
:04015c00ea020000b3
:020000040000fa
:04016000ea020000af
:020000040000fa
:04016400ea020000ab
:020000040000fa
:04016800ea020000a7
:020000040000fa
:04020800ea02000006
:020000040000fa
:04020c00ea02000002
:020000040000fa
:04021000ea020000fe
:020000040000fa
:04021400ea020000fa
:020000040000fa
:04021800ea020000f6
:020000040000fa
:04021c00ea020000f2
:020000040000fa
:04022000ea020000ee
:020000040000fa
:04022400ea020000ea
:020000040000fa
:04022800ea020000e6
:020000040000fa
:04022c00ea020000e2
:020000040000fa
:04023000ea020000de
:020000040000fa
:04023400ea020000da
:020000040000fa
:04023800ea020000d6
:020000040000fa
:04023c00ea020000d2
:020000040000fa
:04024000ea020000ce
:020000040000fa
:04024400ea020000ca
:020000040000fa
:04024800ea020000c6
:020000040000fa
:04024c00ea020000c2
:020000040000fa
:04025000ea020000be
:020000040000fa
:04025400ea020000ba
:020000040000fa
:04025800ea020000b6
:020000040000fa
:04025c00ea020000b2
:020000040000fa
:04026000ea020000ae
:020000040000fa
:04026400ea020000aa
:020000040000fa
:04026800ea020000a6
:020000040000fa
:04026c00ea020000a2
:020000040000fa
:04027000ea0200009e
:020000040000fa
:04027400ea0200009a
:020000040000fa
:04027800ea02000096
:020000040000fa
:04027c00ea02000092
:020000040000fa
:04028000ea0200008e
:020000040000fa
:04028400ea0200008a
:020000040000fa
:04028800ea02000086
:020000040000fa
:04028c00ea02000082
:020000040000fa
:04029000ea0200007e
:020000040000fa
:04029400ea0200007a
:020000040000fa
:04029800ea02000076
:020000040000fa
:04029c00ea02000072
:020000040000fa
:0402a000ea0200006e
:020000040000fa
:0402a400ea0200006a
:020000040000fa
:0402a800ea02000066
:020000040000fa
:0402ac00ea02000062
:020000040000fa
:0402b000ea0200005e
:020000040000fa
:0402b400ea0200005a
:020000040000fa
:0402b800ea02000056
:020000040000fa
:0402bc00ea02000052
:020000040000fa
:0402c000ea0200004e
:020000040000fa
:0402c400ea0200004a
:020000040000fa
:0402c800ea02000046
:020000040000fa
:0402cc00ea02000042
:020000040000fa
:0402d000ea0200003e
:020000040000fa
:0402d400ea0200003a
:020000040000fa
:0402d800ea02000036
:020000040000fa
:0402dc00ea02000032
:020000040000fa
:0402e000ea0200002e
:020000040000fa
:0402e400ea0200002a
:020000040000fa
:0402e800ea02000026
:020000040000fa
:0402ec00ea02000022
:020000040000fa
:0402f000ea0200001e
:020000040000fa
:0402f400ea0200001a
:020000040000fa
:0402f800ea02000016
:020000040000fa
:0402fc00ea02000012
:020000040000fa
:04030000ea0200000d
:020000040000fa
:04030400ea02000009
:020000040000fa
:04030800ea02000005
:020000040000fa
:04030c00ea02000001
:020000040000fa
:04031000ea020000fd
:020000040000fa
:04031400ea020000f9
:020000040000fa
:04031800ea020000f5
:020000040000fa
:04031c00ea020000f1
:020000040000fa
:04032000ea020000ed
:020000040000fa
:04032400ea020000e9
:020000040000fa
:04032800ea020000e5
:020000040000fa
:04032c00ea020000e1
:020000040000fa
:04033000ea020000dd
:020000040000fa
:04033400ea020000d9
:020000040000fa
:04033800ea020000d5
:020000040000fa
:04033c00ea020000d1
:020000040000fa
:04034000ea020000cd
:020000040000fa
:04034400ea020000c9
:020000040000fa
:04034800ea020000c5
:020000040000fa
:04034c00ea020000c1
:020000040000fa
:04035000ea020000bd
:020000040000fa
:04035400ea020000b9
:020000040000fa
:04035800ea020000b5
:020000040000fa
:04035c00ea020000b1
:020000040000fa
:04036000ea020000ad
:020000040000fa
:04036400ea020000a9
:020000040000fa
:04036800ea020000a5
:020000040000fa
:10040000af8220000eff20000e01880000000000d7
:10041000000020000000e000020032000001200087
:1004200020028800140007006c0007000000e000b4
:1004300003003a008047200001002000020037003e
:100440000000200001002000810f70000100320038
:1004500014000700000020000000e000020032004d
:1004600000000200000000009a04020000000000ea
:100470000040da000000fe004440a9000000200017
:100480000000e0000300320000002000a00188000e
:100490004440a800000006008a1f78008b1f7800e7
:1004a0000000060091018800800478000000eb0045
:1004b0001a003700e284440032a0b4009905ba0063
:1004c000e284440032a0b4009906ba00e2844400f9
:1004d00032a0b4000006eb00476fde00fd07b2005b
:1004e000636ce10003003a00ebff07000000eb0043
:1004f0000a003700606ce10004003a00005deb0088
:100500008b05e900fdff3e00040037006168e10053
:10051000010032000086eb000b00070019c7ba008b
:100520001905ba000e04e00003003a000a00e000da
:10053000e0ff3a0000000600fe07b2009e018800be
:100540008a047800f5ff3700395dba008b05e900b1
:100550000c003200295dba008b05e900080032006a
:100560000c00e00003003a00e284440032a0b40032
:10057000f5ff370019ddba008b05e900faff3a00f4
:100580008904e800e184440032a0b40000000600c1
:100590003600f8008020a9000000eb0003010700ee
:1005a0003600f800050107008040a9001000200077
:1005b000fe0007003600f8008060a900200020003f
:1005c000fa0007003600f8008080a9003000200003
:1005d000f60007000040da000000fe000000050001
:020000040000fa
:1005e0000200fa00000f78009e0078003141880078
:1005f0003041800000407800614060000080fb00d6
:10060000610060004900dd0022168000f1df2f004c
:1006100081006100010070002016880030418000d8
:100620000000d100614060000080fb0061006000bc
:100630004a00dd0022168000f1bf2f00810061001a
:100640000100700020168800304180004200de006a
:10065000614060000080fb00610060004b00dd0035
:1006600022168000f17f2f008100610001007000e0
:1006700020168800304180004300de0061406000a9
:100680000080fb00610060004800dd00a2168000d1
:10069000f1ef2f008100610001007000a0168800ba
:1006a000304180004400de00614060000080fb00bb
:1006b000610060004900dd00a2168000f1df2f001c
:1006c0008100610001007000a016880030418000a8
:1006d0004500de00614060000080fb0061006000ba
:1006e0004c00dd0062168000f1ff2e0081006100e9
:1006f0000100700060168800304180004600de0076
:10070000614060000080fb00610060004200dd008d
:1007100062168000b1ff2f008100610001007000af
:1007200060168800304180004700de0061406000b4
:100730000080fb00610060004300dd006216800065
:1007400071ff2f00810061000100700060168800b9
:100750000080fa00000006000400fa00000f780094
:10076000110798009e007800013b8800f0072000e8
:100770000040780032e0b70000e02f0040418800e0
:10078000404180009e0090000108bb005005200001
:10079000303b8800a00a2000303b880061e7a800b9
:1007a000000000000000000000000000013b80008d
:1007b00000002800008060000000e000fbff3a001d
:1007c0000080fa00000006000000fa008000eb0044
:1007d00080052400e0ff07000080fa00000006000a
:1007e0000200fa00000f78009e007800400024000c
:1007f000d9ff07000080fa00000006000000fa00a0
:10080000f00720000040780032e0b70000e02f0041
:1008100040418800404180001000ba000080fa008a
:10082000000006000000fa00c422ef00cc22ef0016
:10083000d422ef00f01920000016880030ff2e00af
:1008400040168800f00f2000801688005620ef0028
:100850005820ef005a20ef006e20ef007020ef00cc
:100860007220ef00c622ef00ce22ef00d622ef006a
:10087000f00020000027880030012e00102788009b
:1008800070002000202788000080fa000000060089
:100890000000fa0000002300203a88004827ef00fb
:1008a0007027ef007227ef007427ef007627ef0024
:1008b0007200200080072000a1092000337420006e
:1008c0008049780081497800824978000001eb0076
:1008d0006004200071052000237420008049780006
:1008e00081497800824978000080fa000000060003
:020000040000fa
:1008f000240800000200000002000000ffff0000ca
:100900000008000020000000000000002008000097
:1009100004000000000000002608000002000000a3
:100920000000000028080000020000000000000095
:0409300000000000c3
:020000040000fa
:100934000000fa0027000700004180000000e800e2
:10094400004188009fff070000418000a3ff0700cb
:10095400a9ff070010418800104180001fff070015
:1009640000122a007100200001000700f2ff370086
:020000040000fa
:10097400f03fb1000180b10006003500ee0309002c
:1009840000000000403fb1000180b100fbff3d00ca
:100994001000b000203fb0000200350000800900c4
:0809a400000000000000060045
:020000040000fa
:1009ac00000f78009e00780021418800ffff37007f
:1009bc000000fa0000802000800778008081200071
:1009cc00000188000080fa00000006000000fa0018
:1009dc0091ff070007000700aaff07000080fa003c
:1009ec00000006000000fa00a6ff07000080fa00d5
:1009fc00000006000000fa000080fa00000006006b
:020000040000fa
:0200000400fffb
:04fc00000000000000
:020000040000fa
:0200000401f009
:04000000ffff0000fe
:020000040000fa
:0200000401f009
:04000800ffff0000f6
:020000040000fa
:0200000401f009
:04000c00ffff0000f2
:020000040000fa
:0200000401f009
:04001000bbff000032
:020000040000fa
:0200000401f009
:040014005fff00008a
:020000040000fa
:0200000401f009
:04001800ffff0000e6
:020000040000fa
:0200000401f009
:04001c00fdff0000e4
:020000040000fa
:0200000401f009
:04002000ffff0000de
:00000001FF
